{
  "contractName": "Consortium",
  "abi": [
    {
      "constant": true,
      "inputs": [
        {
          "name": "",
          "type": "address"
        }
      ],
      "name": "Balance",
      "outputs": [
        {
          "name": "",
          "type": "int256"
        }
      ],
      "payable": false,
      "stateMutability": "view",
      "type": "function",
      "signature": "0x239fcf0f"
    },
    {
      "constant": true,
      "inputs": [
        {
          "name": "",
          "type": "address"
        }
      ],
      "name": "air_data",
      "outputs": [
        {
          "name": "",
          "type": "int256"
        }
      ],
      "payable": false,
      "stateMutability": "view",
      "type": "function",
      "signature": "0x8dd74ed6"
    },
    {
      "inputs": [],
      "payable": false,
      "stateMutability": "nonpayable",
      "type": "constructor",
      "signature": "constructor"
    },
    {
      "constant": false,
      "inputs": [
        {
          "name": "user",
          "type": "address"
        },
        {
          "name": "airline_id",
          "type": "int256"
        }
      ],
      "name": "register",
      "outputs": [],
      "payable": false,
      "stateMutability": "nonpayable",
      "type": "function",
      "signature": "0xfa9ec65a"
    },
    {
      "constant": false,
      "inputs": [
        {
          "name": "user",
          "type": "address"
        }
      ],
      "name": "unregister",
      "outputs": [],
      "payable": false,
      "stateMutability": "nonpayable",
      "type": "function",
      "signature": "0x2ec2c246"
    },
    {
      "constant": false,
      "inputs": [],
      "name": "balanceDetails",
      "outputs": [
        {
          "name": "",
          "type": "int256"
        }
      ],
      "payable": false,
      "stateMutability": "nonpayable",
      "type": "function",
      "signature": "0x8b618dc6"
    },
    {
      "constant": false,
      "inputs": [
        {
          "name": "airline_requested",
          "type": "int256"
        }
      ],
      "name": "response",
      "outputs": [],
      "payable": false,
      "stateMutability": "nonpayable",
      "type": "function",
      "signature": "0x9978419c"
    },
    {
      "constant": false,
      "inputs": [
        {
          "name": "airline",
          "type": "int256"
        }
      ],
      "name": "updateAirlines",
      "outputs": [],
      "payable": false,
      "stateMutability": "nonpayable",
      "type": "function",
      "signature": "0xc3582736"
    }
  ],
  "bytecode": "0x608060405234801561001057600080fd5b50336000806101000a81548173ffffffffffffffffffffffffffffffffffffffff021916908373ffffffffffffffffffffffffffffffffffffffff16021790555061008c6000809054906101000a900473ffffffffffffffffffffffffffffffffffffffff166001610091640100000000026401000000009004565b6100d9565b80600160008473ffffffffffffffffffffffffffffffffffffffff1673ffffffffffffffffffffffffffffffffffffffff168152602001908152602001600020819055505050565b61058a806100e86000396000f3fe608060405260043610610083576000357c0100000000000000000000000000000000000000000000000000000000900463ffffffff168063239fcf0f146100885780632ec2c246146100ed5780638b618dc61461013e5780638dd74ed6146101695780639978419c146101ce578063c358273614610209578063fa9ec65a14610244575b600080fd5b34801561009457600080fd5b506100d7600480360360208110156100ab57600080fd5b81019080803573ffffffffffffffffffffffffffffffffffffffff16906020019092919050505061029f565b6040518082815260200191505060405180910390f35b3480156100f957600080fd5b5061013c6004803603602081101561011057600080fd5b81019080803573ffffffffffffffffffffffffffffffffffffffff1690602001909291905050506102b7565b005b34801561014a57600080fd5b5061015361035a565b6040518082815260200191505060405180910390f35b34801561017557600080fd5b506101b86004803603602081101561018c57600080fd5b81019080803573ffffffffffffffffffffffffffffffffffffffff169060200190929190505050610412565b6040518082815260200191505060405180910390f35b3480156101da57600080fd5b50610207600480360360208110156101f157600080fd5b810190808035906020019092919050505061042a565b005b34801561021557600080fd5b506102426004803603602081101561022c57600080fd5b8101908080359060200190929190505050610483565b005b34801561025057600080fd5b5061029d6004803603604081101561026757600080fd5b81019080803573ffffffffffffffffffffffffffffffffffffffff16906020019092919080359060200190929190505050610516565b005b60026020528060005260406000206000915090505481565b6000809054906101000a900473ffffffffffffffffffffffffffffffffffffffff1673ffffffffffffffffffffffffffffffffffffffff163373ffffffffffffffffffffffffffffffffffffffff1614151561031257600080fd5b6000600160008373ffffffffffffffffffffffffffffffffffffffff1673ffffffffffffffffffffffffffffffffffffffff1681526020019081526020016000208190555050565b600080600260003373ffffffffffffffffffffffffffffffffffffffff1673ffffffffffffffffffffffffffffffffffffffff168152602001908152602001600020541215156103eb57600160003373ffffffffffffffffffffffffffffffffffffffff1673ffffffffffffffffffffffffffffffffffffffff16815260200190815260200160002054905061040f565b7fffffffffffffffffffffffffffffffffffffffffffffffffffffffffffffffff90505b90565b60016020528060005260406000206000915090505481565b6000600260003373ffffffffffffffffffffffffffffffffffffffff1673ffffffffffffffffffffffffffffffffffffffff16815260200190815260200160002054121561047757600080fd5b61048081610483565b50565b80600160003373ffffffffffffffffffffffffffffffffffffffff1673ffffffffffffffffffffffffffffffffffffffff1681526020019081526020016000205414156104cf57600080fd5b80600160003373ffffffffffffffffffffffffffffffffffffffff1673ffffffffffffffffffffffffffffffffffffffff1681526020019081526020016000208190555050565b80600160008473ffffffffffffffffffffffffffffffffffffffff1673ffffffffffffffffffffffffffffffffffffffff16815260200190815260200160002081905550505056fea165627a7a7230582051d3679ffa292f9b7641b4956365084fd148eace20abd0549744b48d1017e44b0029",
  "source": "pragma solidity ^0.5.0;\n\ncontract Consortium {\n\n    address chairperson;\n\n    mapping (address => int) public air_data;\n    mapping (address => int) public Balance;\n\n    constructor () public {\n        chairperson = msg.sender;\n        register(chairperson, 1);\n    }\n\n   modifier onlyChair(){\n   require(msg.sender ==chairperson);\n   _;\n}\n\n\n    function register(address user, int airline_id) public {\n        air_data[user] = airline_id;\n    }\n\n    function unregister(address user) public onlyChair{\n        air_data[user] = 0;\n    }\n\n    function balanceDetails () public returns(int){\n\tif(Balance[msg.sender] >=0){\n\t\treturn air_data[msg.sender];\n\t} else{\n\t\treturn -1;\t\n\t}\n\n    }\n\n    function settle_payment(int airline_id) private {\n        air_data[msg.sender] = airline_id;\n     }\n\n     // Airlines response to user's request by doing validation and settle payment if it's good\n     function response(int airline_requested) public {\n\tif(Balance[msg.sender]<0){\n\t\trevert();\t\n\t}\n        updateAirlines(airline_requested);\n     }\n\n    function updateAirlines(int256 airline) public{\n        if(air_data[msg.sender]==airline){\n            revert();\n        } else{\n            air_data[msg.sender] = airline;\n        }\n    }\n    \n}\n",
  "sourcePath": "/home/scravlon/Desktop/lab2222/ballot-contract/contracts/Airline.sol",
  "compiler": {
    "name": "solc",
    "version": "0.5.0+commit.1d4f565a.Emscripten.clang"
  },
  "schemaVersion": "3.0.5",
  "updatedAt": "2019-05-07T15:00:18.972Z",
  "devdoc": {
    "methods": {}
  },
  "userdoc": {
    "methods": {}
  }
}